:1000000055C000006EC000006CC000006AC0000057
:1000100068C0000066C0000064C0000062C000004C
:1000200060C000005EC000005CC000005AC000005C
:1000300058C0000056C0000054C0000052C000006C
:1000400050C000004EC000004CC000004AC000007C
:1000500048C0000046C0000044C0000042C000008C
:1000600040C000003EC000003CC000003AC000009C
:1000700038C0000036C0000034C0000032C00000AC
:1000800030C000002EC000002CC000002AC00000BC
:1000900028C0000026C0000024C0000022C00000CC
:1000A00020C000001EC000001CC0000011241FBEA4
:1000B000CFEFDAE0DEBFCDBF11E0A0E0B1E0E6E8CF
:1000C000F4E002C005900D92A033B107D9F721E00A
:1000D000A0E3B1E001C01D92A433B207E1F728D13B
:1000E000D0C18ECFE0E8F0E082E0808380818F7322
:1000F0008068808380818F7C806280838AE18093A6
:10010000810088EB9BE09093890080938800909316
:100110008B0080938A0080E29EE490938700809316
:100120008600269A259A089589E190E09093CD0063
:100130008093CC0082E08093C80088E18093C9005E
:1001400086E08093CA000895FC012191CF0122230B
:1001500039F03091C80035FFFCCF2093CE00F4CFAA
:100160000895CF92DF92EF92FF92CF93DF93CDB7B6
:10017000DEB728970FB6F894DEBF0FBECDBF97FD50
:1001800006C0853B91052CF084EB90E002C080E036
:1001900090E09093330180933201C0900201D0909F
:1001A000030120910001309101012C193D09EE2439
:1001B000D7FCE094FE2C47E0CC0CDD1CEE1CFF1CB1
:1001C0004A95D1F7442737FD4095542F67E0220F19
:1001D000331F441F551F6A95D1F7DC01DED024EB95
:1001E00030E040E050E0BDD0C20ED31EE41EF51E4C
:1001F000C701B60128E030E040E050E0B2D03093D3
:1002000089002093880084E091E09EDF8091320194
:100210004AE0BE016F5F7F4F90E000D1CE010196B2
:1002200093DF88E191E090DF28960FB6F894DEBF67
:100230000FBECDBFDF91CF91FF90EF90DF90CF90B9
:100240000895CF92DF92EF92FF92CF93DF93CDB7D5
:10025000DEB728970FB6F894DEBF0FBECDBF97FD6F
:1002600006C0853B91052CF084EB90E002C080E055
:1002700090E09093310180933001C0900201D090C2
:10028000030120910001309101012C193D09EE2458
:10029000D7FCE094FE2C77E0CC0CDD1CEE1CFF1CA0
:1002A0007A95D1F7442737FD4095542FE7E0220F88
:1002B000331F441F551FEA95D1F7DC016ED024EBA4
:1002C00030E040E050E04DD0C20ED31EE41EF51EDB
:1002D000C701B60128E030E040E050E042D0309362
:1002E0008B0020938A008BE191E02EDF809130011A
:1002F0004AE0BE016F5F7F4F90E090D0CE01019643
:1003000023DF88E191E020DF28960FB6F894DEBF66
:100310000FBECDBFDF91CF91FF90EF90DF90CF90D8
:1003200008958091C80087FFFCCF8091CE0008958A
:10033000FBDED8DE80E88093610081E0809361007D
:10034000F0DF8832E9F7EDDFD82FEBDFC82FE9DFE8
:100350008932B1F78D2F90E004DF8C2F90E071DFB0
:10036000EFCF052E97FB16F400940FD057FD05D064
:100370001AD007FC02D046F408C05095409530953D
:1003800021953F4F4F4F5F4F089590958095709501
:1003900061957F4F8F4F9F4F0895B7FF26C025D09F
:1003A000821B930B0895A1E21A2EAA1BBB1BFD0111
:1003B0000DC0AA1FBB1FEE1FFF1FA217B307E40744
:1003C000F50720F0A21BB30BE40BF50B661F771F9C
:1003D000881F991F1A9469F760957095809590957C
:1003E0009B01AC01BD01CF01089509D0A59F900DDF
:1003F000B49F900DA49F800D911D11240895A29F7C
:10040000B001B39FC001A39F700D811D1124911DE8
:10041000B29F700D811D1124911D0895BB274A3094
:1004200031F4992322F4BDE2909581959F4F01C04C
:10043000BB27FB015527AA27880F991FAA1FA417BE
:1004400010F0A41B83955051B9F7A05DAA3308F0B2
:10045000A95DA193009779F7B111B1931192CB01E6
:1004600000C0DC01FC01672F71917723E1F732971F
:1004700004C07C916D9370836291AE17BF07C8F37F
:060480000895F894FFCF7F
:100486009600220053657474696E672073657276F0
:100496006F20746F20413A000A0D00536574746929
:1004A6006E6720736572766F20746F20423A000083
:00000001FF
